:020000000C945E
:1000020037000C9400000C9400000C9400000C9437
:1000120000000C9400000C9400000C9400000C945E
:1000220000000C9400000C9400000C9400000C944E
:1000320000000C9400000C9400000C9400000C943E
:1000420000000C9400000C9400000C9400000C942E
:10005200000000003F065B4F666D7D077F6F020068
:10006200040054000A00600156000000F894EE27D4
:10007200ECBBF1E0FBBFEBBFE5BF8DE0A2E0BB272D
:10008200ED938A95E9F780E094E0A0E6ED9301977D
:10009200E9F7E0E6F0E085919591009761F0A5918E
:1000A200B59105901590BF01F00105900D92019751
:1000B200E1F7FB01F0CFEFE5EDBFE4E0EEBFC0E614
:1000C200D1E00C946400E0E0EBBBEABBE8BBE7BB29
:1000D2005524EBE05E16C0F44424E6E04E1690F49C
:1000E200E52DF0E0E05AFE4FE081EBBBE42DF0E0BD
:1000F200E05AFE4FE081E8BBA8ECB0E00E94870026
:100102004394EBCF5394E5CFE3CFFFCF109639F072
:1001120080ED97E00197F1F7A8951197C9F7089537
:00000001FF
