:0C0000000C9437000C9464000C94000079
:10000C000C9400000C9400000C9400000C94000064
:10001C000C9400000C9400000C9400000C94000054
:10002C000C9400000C9400000C9400000C94000044
:10003C000C9400000C9400000C9400000C94000034
:10004C000C9400000C940000000000000102040855
:10005C001020408004000400540008006001580087
:10006C000000F894EE27ECBBF1E0FBBFEBBFE5BF63
:10007C008DE0A2E0BB27ED938A95E9F780E094E050
:10008C00A0E6ED930197E9F7E0E6F0E08591959114
:10009C00009761F0A591B59105901590BF01F00105
:1000AC0005900D920197E1F7FB01F0CFEFE5EDBF65
:1000BC00E4E0EEBFC0E6D1E00C9403010A921A9280
:1000CC00FA926A937A938A939A93AA93BA93EA933D
:1000DC00FA93EFB7EA9315D1E0E0F0E00E94F90152
:1000EC00E02149F1F20131962F017724E8E07E16E8
:1000FC0038F410D115D1E8BBE0E0EBBB7394F6CF2C
:10010C007724E8E07E1620F405D111D17394F9CF51
:10011C007724E8E07E1620F413D109D17394F9CF3B
:10012C007724E8E07E1638F40BD1FAD0EBBBE0E094
:10013C00E8BB7394F6CFE5D0E1E0F0E00E94F90162
:10014C00E021D1F0F20131962F017724E8E07E1600
:10015C0030F4E0D0EBBBF4D0FFD07394F7CF77241E
:10016C00E8E07E1648F4D6D0E8BBEAD0D9D0EBBB99
:10017C00E0E0E8BB7394F4CFC4D0E2E0F0E00E947E
:10018C00F901E02161F1442455247724E4E07E1642
:10019C0088F4772009F4E9D0E1E0E71509F4F1D00F
:1001AC00E2E0E71509F4F9D0E3E0E71509F401D131
:1001BC007394ECCF7724E4E07E1688F4772009F46E
:1001CC00F8D0E1E0E71509F4E8D0E2E0E71509F42E
:1001DC00D8D0E3E0E71509F4C8D07394ECCFE991DB
:1001EC00EFBFF991E991B991A9919991899179917F
:1001FC006991F99019900990189510E0E0E0E7BB2F
:10020C00E8BBEABBEBBBA898A09A90988898E0E46E
:10021C00EBBFE3E0E5BFE0E4EABF7894989B6FC0E6
:10022C001F5F113031F57724E8E07E1638F472D078
:10023C0077D0E8BBE0E0EBBB7394F6CF7724E8E033
:10024C007E1620F467D073D07394F9CF7724E8E04E
:10025C007E1620F475D06BD07394F9CF7724E8E038
:10026C007E1638F46DD05CD0EBBBE0E0E8BB739449
:10027C00F6CF1230B9F47724E8E07E1630F44AD089
:10028C00EBBB5ED069D07394F7CF7724E8E07E1691
:10029C0048F440D0E8BB54D043D0EBBBE0E0E8BB23
:1002AC007394F4CF133059F510E07724E4E07E1604
:1002BC0088F4772009F459D0E1E0E71509F461D00E
:1002CC00E2E0E71509F469D0E3E0E71509F471D031
:1002DC007394ECCF7724E4E07E1688F4772009F44D
:1002EC0068D0E1E0E71509F458D0E2E0E71509F42D
:1002FC0048D0E3E0E71509F438D07394ECCF8ECFF7
:10030C00FFCFA0E08299A1E0E1E00E94F4010E2E63
:10031C00D2010895E72DF0E0E05AFE4FE0810895F8
:10032C00EBBBAEE1B0E00E94EA01E0E00895E8BB6F
:10033C00AEE1B0E00E94EA01E0E0EBBBE8BB08955F
:10034C00E72DF0E0A7E0B0E00E94FF01EA1BFB0BF9
:10035C00E05AFE4FE0810895E8BBAEE1B0E00E94A8
:10036C00EA01E0E0E8BBEBBB0895ECE0EBBBE0E3BB
:10037C00E8BBA8E2B0E00E94EA01E0E0E8BBEBBB1E
:10038C000895EFE0EBBBE0EFE8BBA8E2B0E00E9421
:10039C00EA01E0E0E8BBEBBB0895EFECEBBBE3EF6D
:1003AC00E8BBA8E2B0E00E94EA01E0E0E8BBEBBBEE
:1003BC000895EFEFEBBBE8BBA8E2B0E00E94EA01C6
:1003CC00E0E0E8BBEBBB0895109639F080ED97E0C8
:1003DC000197F1F7A8951197C9F70895EA17E1E08D
:1003EC0009F0EE270895EA17FB07E1E009F0EE2784
:1003FC0008951B2EBF2FF12D1A2EAE2FE12D08952F
:00000001FF
